:100000000C9434000C943E000C943E000C943E0082
:100010000C943E000C943E000C943E000C943E0068
:100020000C943E000C943E000C943E000C943E0058
:100030000C943E000C943E000C943E000C943E0048
:100040000C943E000C943E000C943E000C943E0038
:100050000C943E000C943E000C943E000C943E0028
:100060000C943E000C943E0011241FBECFEFD8E04C
:10007000DEBFCDBF0E94A7000C94FF000C940000CF
:1000800000C000C000C000C000C000C00000089553
:10009000549855985C985D980895549AF1DF1DD056
:1000A0000895559AEDDF5498EBDF5598E9DF549A9F
:1000B000E7DF13D00895082E549AE2DF802D0DD08B
:1000C000882311F002D0F8CF0895559A549AD8DFBA
:1000D0005598D6DF5498D4DF08950894881F01C03E
:1000E000880F59F0559A18F40000549802C0549A99
:1000F00000C0C6DF5598C4DFF3CF559A5498C0DFCF
:1001000055984D9BFECF88274C9981E0B9DF992700
:100110000895882701C081E071E0559A5498B0DFB6
:100120005598AEDF4D9BFECF88944C990894771F6D
:10013000A0F7559A813011F0549801C0549AA0DF6D
:1001400055984D9BFECF9CDF872F99270895CF931D
:10015000DF931F92CDB7DEB78FEF84B985B90E94C8
:10016000480082EA0E944D00882321F00E94650029
:1001700015B844C085E00E946D0085E70E946D00BF
:100180000E94650082EA0E945B0085E00E946D008B
:1001900083EA0E9451000E94890089830E946500C1
:1001A0008981809585B982EA0E945B0080E00E9487
:1001B0006D0080E70E946D0081E70E946D0082E77C
:1001C0000E946D0084E70E946D000E94650082EA33
:1001D0000E945B0080E00E946D0083EA0E94510053
:1001E0000E948B000E948B000E948B000E9489005D
:1001F00089830E9465008981809585B9FFCFF89435
:02020000FFCF2E
:00000001FF
